{
  "contractName": "HelloWorld",
  "abi": [
    {
      "inputs": [],
      "payable": false,
      "stateMutability": "nonpayable",
      "type": "constructor"
    },
    {
      "constant": true,
      "inputs": [],
      "name": "getGreeting",
      "outputs": [
        {
          "name": "",
          "type": "string"
        }
      ],
      "payable": false,
      "stateMutability": "view",
      "type": "function"
    },
    {
      "constant": false,
      "inputs": [
        {
          "name": "_newGreeting",
          "type": "string"
        }
      ],
      "name": "setGreeting",
      "outputs": [
        {
          "name": "success",
          "type": "bool"
        }
      ],
      "payable": false,
      "stateMutability": "nonpayable",
      "type": "function"
    }
  ],
  "bytecode": "0x608060405234801561001057600080fd5b506040805190810160405280601281526020017f48656c6c6f20736d61727420776f726c642100000000000000000000000000008152506000908051906020019061005c929190610062565b50610107565b828054600181600116156101000203166002900490600052602060002090601f016020900481019282601f106100a357805160ff19168380011785556100d1565b828001600101855582156100d1579182015b828111156100d05782518255916020019190600101906100b5565b5b5090506100de91906100e2565b5090565b61010491905b808211156101005760008160009055506001016100e8565b5090565b90565b6102f7806101166000396000f30060806040526004361061004c576000357c0100000000000000000000000000000000000000000000000000000000900463ffffffff168063a413686214610051578063fe50cc72146100d2575b600080fd5b34801561005d57600080fd5b506100b8600480360381019080803590602001908201803590602001908080601f0160208091040260200160405190810160405280939291908181526020018383808284378201915050505050509192919290505050610162565b604051808215151515815260200191505060405180910390f35b3480156100de57600080fd5b506100e7610184565b6040518080602001828103825283818151815260200191508051906020019080838360005b8381101561012757808201518184015260208101905061010c565b50505050905090810190601f1680156101545780820380516001836020036101000a031916815260200191505b509250505060405180910390f35b6000816000908051906020019061017a929190610226565b5060019050919050565b606060008054600181600116156101000203166002900480601f01602080910402602001604051908101604052809291908181526020018280546001816001161561010002031660029004801561021c5780601f106101f15761010080835404028352916020019161021c565b820191906000526020600020905b8154815290600101906020018083116101ff57829003601f168201915b5050505050905090565b828054600181600116156101000203166002900490600052602060002090601f016020900481019282601f1061026757805160ff1916838001178555610295565b82800160010185558215610295579182015b82811115610294578251825591602001919060010190610279565b5b5090506102a291906102a6565b5090565b6102c891905b808211156102c45760008160009055506001016102ac565b5090565b905600a165627a7a72305820e885685a14bbefcb59db8496b896183f40a6dfe5905b5611c57516a46e2c15760029",
  "source": "pragma solidity ^0.4.4;\n\ncontract HelloWorld {\n    string greeting;\n\n    constructor() {\n        greeting = \"Hello smart world!\";\n    }\n\n    function getGreeting () constant returns (string) {\n        return greeting;\n    }\n\n    function setGreeting(string _newGreeting) returns (bool success) {\n        greeting = _newGreeting;\n        return true;\n    }\n}\n",
  "sourcePath": "C:\\Users\\Carlos\\Documents\\GitHub\\testRSK\\contracts\\HelloWorld.sol",
  "compiler": {
    "name": "solc",
    "version": "0.4.24+commit.e67f0147.Emscripten.clang"
  },
  "schemaVersion": "2.0.0",
  "updatedAt": "2018-06-21T23:20:00.668Z"
}